{
  "contractName": "ArtCollectible",
  "abi": [
    {
      "inputs": [],
      "stateMutability": "nonpayable",
      "type": "constructor"
    },
    {
      "anonymous": false,
      "inputs": [
        {
          "indexed": true,
          "internalType": "address",
          "name": "owner",
          "type": "address"
        },
        {
          "indexed": true,
          "internalType": "address",
          "name": "approved",
          "type": "address"
        },
        {
          "indexed": true,
          "internalType": "uint256",
          "name": "tokenId",
          "type": "uint256"
        }
      ],
      "name": "Approval",
      "type": "event"
    },
    {
      "anonymous": false,
      "inputs": [
        {
          "indexed": true,
          "internalType": "address",
          "name": "owner",
          "type": "address"
        },
        {
          "indexed": true,
          "internalType": "address",
          "name": "operator",
          "type": "address"
        },
        {
          "indexed": false,
          "internalType": "bool",
          "name": "approved",
          "type": "bool"
        }
      ],
      "name": "ApprovalForAll",
      "type": "event"
    },
    {
      "anonymous": false,
      "inputs": [
        {
          "indexed": true,
          "internalType": "address",
          "name": "previousOwner",
          "type": "address"
        },
        {
          "indexed": true,
          "internalType": "address",
          "name": "newOwner",
          "type": "address"
        }
      ],
      "name": "OwnershipTransferred",
      "type": "event"
    },
    {
      "anonymous": false,
      "inputs": [
        {
          "indexed": true,
          "internalType": "address",
          "name": "from",
          "type": "address"
        },
        {
          "indexed": true,
          "internalType": "address",
          "name": "to",
          "type": "address"
        },
        {
          "indexed": true,
          "internalType": "uint256",
          "name": "tokenId",
          "type": "uint256"
        }
      ],
      "name": "Transfer",
      "type": "event"
    },
    {
      "inputs": [
        {
          "internalType": "address",
          "name": "to",
          "type": "address"
        },
        {
          "internalType": "uint256",
          "name": "tokenId",
          "type": "uint256"
        }
      ],
      "name": "approve",
      "outputs": [],
      "stateMutability": "nonpayable",
      "type": "function"
    },
    {
      "inputs": [
        {
          "internalType": "address",
          "name": "owner",
          "type": "address"
        }
      ],
      "name": "balanceOf",
      "outputs": [
        {
          "internalType": "uint256",
          "name": "",
          "type": "uint256"
        }
      ],
      "stateMutability": "view",
      "type": "function",
      "constant": true
    },
    {
      "inputs": [
        {
          "internalType": "uint256",
          "name": "tokenId",
          "type": "uint256"
        }
      ],
      "name": "getApproved",
      "outputs": [
        {
          "internalType": "address",
          "name": "",
          "type": "address"
        }
      ],
      "stateMutability": "view",
      "type": "function",
      "constant": true
    },
    {
      "inputs": [
        {
          "internalType": "address",
          "name": "owner",
          "type": "address"
        },
        {
          "internalType": "address",
          "name": "operator",
          "type": "address"
        }
      ],
      "name": "isApprovedForAll",
      "outputs": [
        {
          "internalType": "bool",
          "name": "",
          "type": "bool"
        }
      ],
      "stateMutability": "view",
      "type": "function",
      "constant": true
    },
    {
      "inputs": [],
      "name": "name",
      "outputs": [
        {
          "internalType": "string",
          "name": "",
          "type": "string"
        }
      ],
      "stateMutability": "view",
      "type": "function",
      "constant": true
    },
    {
      "inputs": [],
      "name": "owner",
      "outputs": [
        {
          "internalType": "address",
          "name": "",
          "type": "address"
        }
      ],
      "stateMutability": "view",
      "type": "function",
      "constant": true
    },
    {
      "inputs": [
        {
          "internalType": "uint256",
          "name": "tokenId",
          "type": "uint256"
        }
      ],
      "name": "ownerOf",
      "outputs": [
        {
          "internalType": "address",
          "name": "",
          "type": "address"
        }
      ],
      "stateMutability": "view",
      "type": "function",
      "constant": true
    },
    {
      "inputs": [],
      "name": "renounceOwnership",
      "outputs": [],
      "stateMutability": "nonpayable",
      "type": "function"
    },
    {
      "inputs": [
        {
          "internalType": "address",
          "name": "from",
          "type": "address"
        },
        {
          "internalType": "address",
          "name": "to",
          "type": "address"
        },
        {
          "internalType": "uint256",
          "name": "tokenId",
          "type": "uint256"
        }
      ],
      "name": "safeTransferFrom",
      "outputs": [],
      "stateMutability": "nonpayable",
      "type": "function"
    },
    {
      "inputs": [
        {
          "internalType": "address",
          "name": "from",
          "type": "address"
        },
        {
          "internalType": "address",
          "name": "to",
          "type": "address"
        },
        {
          "internalType": "uint256",
          "name": "tokenId",
          "type": "uint256"
        },
        {
          "internalType": "bytes",
          "name": "_data",
          "type": "bytes"
        }
      ],
      "name": "safeTransferFrom",
      "outputs": [],
      "stateMutability": "nonpayable",
      "type": "function"
    },
    {
      "inputs": [
        {
          "internalType": "address",
          "name": "operator",
          "type": "address"
        },
        {
          "internalType": "bool",
          "name": "approved",
          "type": "bool"
        }
      ],
      "name": "setApprovalForAll",
      "outputs": [],
      "stateMutability": "nonpayable",
      "type": "function"
    },
    {
      "inputs": [
        {
          "internalType": "bytes4",
          "name": "interfaceId",
          "type": "bytes4"
        }
      ],
      "name": "supportsInterface",
      "outputs": [
        {
          "internalType": "bool",
          "name": "",
          "type": "bool"
        }
      ],
      "stateMutability": "view",
      "type": "function",
      "constant": true
    },
    {
      "inputs": [],
      "name": "symbol",
      "outputs": [
        {
          "internalType": "string",
          "name": "",
          "type": "string"
        }
      ],
      "stateMutability": "view",
      "type": "function",
      "constant": true
    },
    {
      "inputs": [
        {
          "internalType": "address",
          "name": "from",
          "type": "address"
        },
        {
          "internalType": "address",
          "name": "to",
          "type": "address"
        },
        {
          "internalType": "uint256",
          "name": "tokenId",
          "type": "uint256"
        }
      ],
      "name": "transferFrom",
      "outputs": [],
      "stateMutability": "nonpayable",
      "type": "function"
    },
    {
      "inputs": [
        {
          "internalType": "address",
          "name": "newOwner",
          "type": "address"
        }
      ],
      "name": "transferOwnership",
      "outputs": [],
      "stateMutability": "nonpayable",
      "type": "function"
    },
    {
      "inputs": [
        {
          "internalType": "string",
          "name": "baseURI_",
          "type": "string"
        }
      ],
      "name": "setBaseURI",
      "outputs": [],
      "stateMutability": "nonpayable",
      "type": "function"
    },
    {
      "inputs": [
        {
          "internalType": "uint256",
          "name": "tokenId",
          "type": "uint256"
        }
      ],
      "name": "tokenURI",
      "outputs": [
        {
          "internalType": "string",
          "name": "",
          "type": "string"
        }
      ],
      "stateMutability": "view",
      "type": "function",
      "constant": true
    },
    {
      "inputs": [
        {
          "internalType": "string",
          "name": "tokenURI",
          "type": "string"
        }
      ],
      "name": "claimItem",
      "outputs": [
        {
          "internalType": "uint256",
          "name": "",
          "type": "uint256"
        }
      ],
      "stateMutability": "nonpayable",
      "type": "function"
    }
  ],
  "bytecode": "0x60806040523480156200001157600080fd5b506040518060400160405280600e81526020017f617274436f6c6c65637469626c650000000000000000000000000000000000008152506040518060400160405280600481526020017f41525443000000000000000000000000000000000000000000000000000000008152506200009e62000092620000d860201b60201c565b620000e060201b60201c565b8160019080519060200190620000b6929190620001a4565b508060029080519060200190620000cf929190620001a4565b505050620002b9565b600033905090565b60008060009054906101000a900473ffffffffffffffffffffffffffffffffffffffff169050816000806101000a81548173ffffffffffffffffffffffffffffffffffffffff021916908373ffffffffffffffffffffffffffffffffffffffff1602179055508173ffffffffffffffffffffffffffffffffffffffff168173ffffffffffffffffffffffffffffffffffffffff167f8be0079c531659141344cd1fd0a4f28419497f9722a3daafe3b4186f6b6457e060405160405180910390a35050565b828054620001b29062000254565b90600052602060002090601f016020900481019282620001d6576000855562000222565b82601f10620001f157805160ff191683800117855562000222565b8280016001018555821562000222579182015b828111156200022157825182559160200191906001019062000204565b5b50905062000231919062000235565b5090565b5b808211156200025057600081600090555060010162000236565b5090565b600060028204905060018216806200026d57607f821691505b602082108114156200028457620002836200028a565b5b50919050565b7f4e487b7100000000000000000000000000000000000000000000000000000000600052602260045260246000fd5b612ff880620002c96000396000f3fe608060405234801561001057600080fd5b50600436106101165760003560e01c8063715018a6116100a2578063a850e8bd11610071578063a850e8bd146102cb578063b88d4fde146102fb578063c87b56dd14610317578063e985e9c514610347578063f2fde38b1461037757610116565b8063715018a6146102695780638da5cb5b1461027357806395d89b4114610291578063a22cb465146102af57610116565b806323b872dd116100e957806323b872dd146101b557806342842e0e146101d157806355f804b3146101ed5780636352211e1461020957806370a082311461023957610116565b806301ffc9a71461011b57806306fdde031461014b578063081812fc14610169578063095ea7b314610199575b600080fd5b61013560048036038101906101309190611fa1565b610393565b604051610142919061241f565b60405180910390f35b610153610475565b604051610160919061243a565b60405180910390f35b610183600480360381019061017e9190612044565b610507565b60405161019091906123b8565b60405180910390f35b6101b360048036038101906101ae9190611f61565b61058c565b005b6101cf60048036038101906101ca9190611e4b565b6106a4565b005b6101eb60048036038101906101e69190611e4b565b610704565b005b61020760048036038101906102029190611ffb565b610724565b005b610223600480360381019061021e9190612044565b6107ba565b60405161023091906123b8565b60405180910390f35b610253600480360381019061024e9190611dde565b61086c565b604051610260919061267c565b60405180910390f35b610271610924565b005b61027b6109ac565b60405161028891906123b8565b60405180910390f35b6102996109d5565b6040516102a6919061243a565b60405180910390f35b6102c960048036038101906102c49190611f21565b610a67565b005b6102e560048036038101906102e09190611ffb565b610be8565b6040516102f2919061267c565b60405180910390f35b61031560048036038101906103109190611e9e565b610c1f565b005b610331600480360381019061032c9190612044565b610c81565b60405161033e919061243a565b60405180910390f35b610361600480360381019061035c9190611e0b565b610df4565b60405161036e919061241f565b60405180910390f35b610391600480360381019061038c9190611dde565b610e88565b005b60007f80ac58cd000000000000000000000000000000000000000000000000000000007bffffffffffffffffffffffffffffffffffffffffffffffffffffffff1916827bffffffffffffffffffffffffffffffffffffffffffffffffffffffff1916148061045e57507f5b5e139f000000000000000000000000000000000000000000000000000000007bffffffffffffffffffffffffffffffffffffffffffffffffffffffff1916827bffffffffffffffffffffffffffffffffffffffffffffffffffffffff1916145b8061046e575061046d82610f80565b5b9050919050565b606060018054610484906128d2565b80601f01602080910402602001604051908101604052809291908181526020018280546104b0906128d2565b80156104fd5780601f106104d2576101008083540402835291602001916104fd565b820191906000526020600020905b8154815290600101906020018083116104e057829003601f168201915b5050505050905090565b600061051282610fea565b610551576040517f08c379a00000000000000000000000000000000000000000000000000000000081526004016105489061259c565b60405180910390fd5b6005600083815260200190815260200160002060009054906101000a900473ffffffffffffffffffffffffffffffffffffffff169050919050565b6000610597826107ba565b90508073ffffffffffffffffffffffffffffffffffffffff168373ffffffffffffffffffffffffffffffffffffffff161415610608576040517f08c379a00000000000000000000000000000000000000000000000000000000081526004016105ff9061263c565b60405180910390fd5b8073ffffffffffffffffffffffffffffffffffffffff16610627611056565b73ffffffffffffffffffffffffffffffffffffffff161480610656575061065581610650611056565b610df4565b5b610695576040517f08c379a000000000000000000000000000000000000000000000000000000000815260040161068c9061251c565b60405180910390fd5b61069f838361105e565b505050565b6106b56106af611056565b82611117565b6106f4576040517f08c379a00000000000000000000000000000000000000000000000000000000081526004016106eb9061265c565b60405180910390fd5b6106ff8383836111f5565b505050565b61071f83838360405180602001604052806000815250610c1f565b505050565b61072c611056565b73ffffffffffffffffffffffffffffffffffffffff1661074a6109ac565b73ffffffffffffffffffffffffffffffffffffffff16146107a0576040517f08c379a0000000000000000000000000000000000000000000000000000000008152600401610797906125dc565b60405180910390fd5b80600990805190602001906107b6929190611bf2565b5050565b6000806003600084815260200190815260200160002060009054906101000a900473ffffffffffffffffffffffffffffffffffffffff169050600073ffffffffffffffffffffffffffffffffffffffff168173ffffffffffffffffffffffffffffffffffffffff161415610863576040517f08c379a000000000000000000000000000000000000000000000000000000000815260040161085a9061255c565b60405180910390fd5b80915050919050565b60008073ffffffffffffffffffffffffffffffffffffffff168273ffffffffffffffffffffffffffffffffffffffff1614156108dd576040517f08c379a00000000000000000000000000000000000000000000000000000000081526004016108d49061253c565b60405180910390fd5b600460008373ffffffffffffffffffffffffffffffffffffffff1673ffffffffffffffffffffffffffffffffffffffff168152602001908152602001600020549050919050565b61092c611056565b73ffffffffffffffffffffffffffffffffffffffff1661094a6109ac565b73ffffffffffffffffffffffffffffffffffffffff16146109a0576040517f08c379a0000000000000000000000000000000000000000000000000000000008152600401610997906125dc565b60405180910390fd5b6109aa6000611451565b565b60008060009054906101000a900473ffffffffffffffffffffffffffffffffffffffff16905090565b6060600280546109e4906128d2565b80601f0160208091040260200160405190810160405280929190818152602001828054610a10906128d2565b8015610a5d5780601f10610a3257610100808354040283529160200191610a5d565b820191906000526020600020905b815481529060010190602001808311610a4057829003601f168201915b5050505050905090565b610a6f611056565b73ffffffffffffffffffffffffffffffffffffffff168273ffffffffffffffffffffffffffffffffffffffff161415610add576040517f08c379a0000000000000000000000000000000000000000000000000000000008152600401610ad4906124dc565b60405180910390fd5b8060066000610aea611056565b73ffffffffffffffffffffffffffffffffffffffff1673ffffffffffffffffffffffffffffffffffffffff16815260200190815260200160002060008473ffffffffffffffffffffffffffffffffffffffff1673ffffffffffffffffffffffffffffffffffffffff16815260200190815260200160002060006101000a81548160ff0219169083151502179055508173ffffffffffffffffffffffffffffffffffffffff16610b97611056565b73ffffffffffffffffffffffffffffffffffffffff167f17307eab39ab6107e8899845ad3d59bd9653f200f220920489ca2b5937696c3183604051610bdc919061241f565b60405180910390a35050565b6000610bf46007611515565b6000610c00600761152b565b9050610c0c3382611539565b610c168184611557565b80915050919050565b610c30610c2a611056565b83611117565b610c6f576040517f08c379a0000000000000000000000000000000000000000000000000000000008152600401610c669061265c565b60405180910390fd5b610c7b848484846115cb565b50505050565b6060610c8c82610fea565b610ccb576040517f08c379a0000000000000000000000000000000000000000000000000000000008152600401610cc29061261c565b60405180910390fd5b6000600860008481526020019081526020016000208054610ceb906128d2565b80601f0160208091040260200160405190810160405280929190818152602001828054610d17906128d2565b8015610d645780601f10610d3957610100808354040283529160200191610d64565b820191906000526020600020905b815481529060010190602001808311610d4757829003601f168201915b505050505090506000610d75611627565b9050600081511415610d8b578192505050610def565b600082511115610dc0578082604051602001610da8929190612394565b60405160208183030381529060405292505050610def565b80610dca856116b9565b604051602001610ddb929190612394565b604051602081830303815290604052925050505b919050565b6000600660008473ffffffffffffffffffffffffffffffffffffffff1673ffffffffffffffffffffffffffffffffffffffff16815260200190815260200160002060008373ffffffffffffffffffffffffffffffffffffffff1673ffffffffffffffffffffffffffffffffffffffff16815260200190815260200160002060009054906101000a900460ff16905092915050565b610e90611056565b73ffffffffffffffffffffffffffffffffffffffff16610eae6109ac565b73ffffffffffffffffffffffffffffffffffffffff1614610f04576040517f08c379a0000000000000000000000000000000000000000000000000000000008152600401610efb906125dc565b60405180910390fd5b600073ffffffffffffffffffffffffffffffffffffffff168173ffffffffffffffffffffffffffffffffffffffff161415610f74576040517f08c379a0000000000000000000000000000000000000000000000000000000008152600401610f6b9061247c565b60405180910390fd5b610f7d81611451565b50565b60007f01ffc9a7000000000000000000000000000000000000000000000000000000007bffffffffffffffffffffffffffffffffffffffffffffffffffffffff1916827bffffffffffffffffffffffffffffffffffffffffffffffffffffffff1916149050919050565b60008073ffffffffffffffffffffffffffffffffffffffff166003600084815260200190815260200160002060009054906101000a900473ffffffffffffffffffffffffffffffffffffffff1673ffffffffffffffffffffffffffffffffffffffff1614159050919050565b600033905090565b816005600083815260200190815260200160002060006101000a81548173ffffffffffffffffffffffffffffffffffffffff021916908373ffffffffffffffffffffffffffffffffffffffff160217905550808273ffffffffffffffffffffffffffffffffffffffff166110d1836107ba565b73ffffffffffffffffffffffffffffffffffffffff167f8c5be1e5ebec7d5bd14f71427d1e84f3dd0314c0f7b2291e5b200ac8c7c3b92560405160405180910390a45050565b600061112282610fea565b611161576040517f08c379a0000000000000000000000000000000000000000000000000000000008152600401611158906124fc565b60405180910390fd5b600061116c836107ba565b90508073ffffffffffffffffffffffffffffffffffffffff168473ffffffffffffffffffffffffffffffffffffffff1614806111db57508373ffffffffffffffffffffffffffffffffffffffff166111c384610507565b73ffffffffffffffffffffffffffffffffffffffff16145b806111ec57506111eb8185610df4565b5b91505092915050565b8273ffffffffffffffffffffffffffffffffffffffff16611215826107ba565b73ffffffffffffffffffffffffffffffffffffffff161461126b576040517f08c379a0000000000000000000000000000000000000000000000000000000008152600401611262906125fc565b60405180910390fd5b600073ffffffffffffffffffffffffffffffffffffffff168273ffffffffffffffffffffffffffffffffffffffff1614156112db576040517f08c379a00000000000000000000000000000000000000000000000000000000081526004016112d2906124bc565b60405180910390fd5b6112e683838361181a565b6112f160008261105e565b6001600460008573ffffffffffffffffffffffffffffffffffffffff1673ffffffffffffffffffffffffffffffffffffffff168152602001908152602001600020600082825461134191906127e8565b925050819055506001600460008473ffffffffffffffffffffffffffffffffffffffff1673ffffffffffffffffffffffffffffffffffffffff16815260200190815260200160002060008282546113989190612761565b92505081905550816003600083815260200190815260200160002060006101000a81548173ffffffffffffffffffffffffffffffffffffffff021916908373ffffffffffffffffffffffffffffffffffffffff160217905550808273ffffffffffffffffffffffffffffffffffffffff168473ffffffffffffffffffffffffffffffffffffffff167fddf252ad1be2c89b69c2b068fc378daa952ba7f163c4a11628f55a4df523b3ef60405160405180910390a4505050565b60008060009054906101000a900473ffffffffffffffffffffffffffffffffffffffff169050816000806101000a81548173ffffffffffffffffffffffffffffffffffffffff021916908373ffffffffffffffffffffffffffffffffffffffff1602179055508173ffffffffffffffffffffffffffffffffffffffff168173ffffffffffffffffffffffffffffffffffffffff167f8be0079c531659141344cd1fd0a4f28419497f9722a3daafe3b4186f6b6457e060405160405180910390a35050565b6001816000016000828254019250508190555050565b600081600001549050919050565b61155382826040518060200160405280600081525061181f565b5050565b61156082610fea565b61159f576040517f08c379a0000000000000000000000000000000000000000000000000000000008152600401611596906125bc565b60405180910390fd5b806008600084815260200190815260200160002090805190602001906115c6929190611bf2565b505050565b6115d68484846111f5565b6115e28484848461187a565b611621576040517f08c379a00000000000000000000000000000000000000000000000000000000081526004016116189061245c565b60405180910390fd5b50505050565b606060098054611636906128d2565b80601f0160208091040260200160405190810160405280929190818152602001828054611662906128d2565b80156116af5780601f10611684576101008083540402835291602001916116af565b820191906000526020600020905b81548152906001019060200180831161169257829003601f168201915b5050505050905090565b60606000821415611701576040518060400160405280600181526020017f30000000000000000000000000000000000000000000000000000000000000008152509050611815565b600082905060005b6000821461173357808061171c90612935565b915050600a8261172c91906127b7565b9150611709565b60008167ffffffffffffffff81111561174f5761174e612a6b565b5b6040519080825280601f01601f1916602001820160405280156117815781602001600182028036833780820191505090505b5090505b6000851461180e5760018261179a91906127e8565b9150600a856117a9919061297e565b60306117b59190612761565b60f81b8183815181106117cb576117ca612a3c565b5b60200101907effffffffffffffffffffffffffffffffffffffffffffffffffffffffffffff1916908160001a905350600a8561180791906127b7565b9450611785565b8093505050505b919050565b505050565b6118298383611a11565b611836600084848461187a565b611875576040517f08c379a000000000000000000000000000000000000000000000000000000000815260040161186c9061245c565b60405180910390fd5b505050565b600061189b8473ffffffffffffffffffffffffffffffffffffffff16611bdf565b15611a04578373ffffffffffffffffffffffffffffffffffffffff1663150b7a026118c4611056565b8786866040518563ffffffff1660e01b81526004016118e694939291906123d3565b602060405180830381600087803b15801561190057600080fd5b505af192505050801561193157506040513d601f19601f8201168201806040525081019061192e9190611fce565b60015b6119b4573d8060008114611961576040519150601f19603f3d011682016040523d82523d6000602084013e611966565b606091505b506000815114156119ac576040517f08c379a00000000000000000000000000000000000000000000000000000000081526004016119a39061245c565b60405180910390fd5b805181602001fd5b63150b7a0260e01b7bffffffffffffffffffffffffffffffffffffffffffffffffffffffff1916817bffffffffffffffffffffffffffffffffffffffffffffffffffffffff191614915050611a09565b600190505b949350505050565b600073ffffffffffffffffffffffffffffffffffffffff168273ffffffffffffffffffffffffffffffffffffffff161415611a81576040517f08c379a0000000000000000000000000000000000000000000000000000000008152600401611a789061257c565b60405180910390fd5b611a8a81610fea565b15611aca576040517f08c379a0000000000000000000000000000000000000000000000000000000008152600401611ac19061249c565b60405180910390fd5b611ad66000838361181a565b6001600460008473ffffffffffffffffffffffffffffffffffffffff1673ffffffffffffffffffffffffffffffffffffffff1681526020019081526020016000206000828254611b269190612761565b92505081905550816003600083815260200190815260200160002060006101000a81548173ffffffffffffffffffffffffffffffffffffffff021916908373ffffffffffffffffffffffffffffffffffffffff160217905550808273ffffffffffffffffffffffffffffffffffffffff16600073ffffffffffffffffffffffffffffffffffffffff167fddf252ad1be2c89b69c2b068fc378daa952ba7f163c4a11628f55a4df523b3ef60405160405180910390a45050565b600080823b905060008111915050919050565b828054611bfe906128d2565b90600052602060002090601f016020900481019282611c205760008555611c67565b82601f10611c3957805160ff1916838001178555611c67565b82800160010185558215611c67579182015b82811115611c66578251825591602001919060010190611c4b565b5b509050611c749190611c78565b5090565b5b80821115611c91576000816000905550600101611c79565b5090565b6000611ca8611ca3846126bc565b612697565b905082815260208101848484011115611cc457611cc3612a9f565b5b611ccf848285612890565b509392505050565b6000611cea611ce5846126ed565b612697565b905082815260208101848484011115611d0657611d05612a9f565b5b611d11848285612890565b509392505050565b600081359050611d2881612f66565b92915050565b600081359050611d3d81612f7d565b92915050565b600081359050611d5281612f94565b92915050565b600081519050611d6781612f94565b92915050565b600082601f830112611d8257611d81612a9a565b5b8135611d92848260208601611c95565b91505092915050565b600082601f830112611db057611daf612a9a565b5b8135611dc0848260208601611cd7565b91505092915050565b600081359050611dd881612fab565b92915050565b600060208284031215611df457611df3612aa9565b5b6000611e0284828501611d19565b91505092915050565b60008060408385031215611e2257611e21612aa9565b5b6000611e3085828601611d19565b9250506020611e4185828601611d19565b9150509250929050565b600080600060608486031215611e6457611e63612aa9565b5b6000611e7286828701611d19565b9350506020611e8386828701611d19565b9250506040611e9486828701611dc9565b9150509250925092565b60008060008060808587031215611eb857611eb7612aa9565b5b6000611ec687828801611d19565b9450506020611ed787828801611d19565b9350506040611ee887828801611dc9565b925050606085013567ffffffffffffffff811115611f0957611f08612aa4565b5b611f1587828801611d6d565b91505092959194509250565b60008060408385031215611f3857611f37612aa9565b5b6000611f4685828601611d19565b9250506020611f5785828601611d2e565b9150509250929050565b60008060408385031215611f7857611f77612aa9565b5b6000611f8685828601611d19565b9250506020611f9785828601611dc9565b9150509250929050565b600060208284031215611fb757611fb6612aa9565b5b6000611fc584828501611d43565b91505092915050565b600060208284031215611fe457611fe3612aa9565b5b6000611ff284828501611d58565b91505092915050565b60006020828403121561201157612010612aa9565b5b600082013567ffffffffffffffff81111561202f5761202e612aa4565b5b61203b84828501611d9b565b91505092915050565b60006020828403121561205a57612059612aa9565b5b600061206884828501611dc9565b91505092915050565b61207a8161281c565b82525050565b6120898161282e565b82525050565b600061209a8261271e565b6120a48185612734565b93506120b481856020860161289f565b6120bd81612aae565b840191505092915050565b60006120d382612729565b6120dd8185612745565b93506120ed81856020860161289f565b6120f681612aae565b840191505092915050565b600061210c82612729565b6121168185612756565b935061212681856020860161289f565b80840191505092915050565b600061213f603283612745565b915061214a82612abf565b604082019050919050565b6000612162602683612745565b915061216d82612b0e565b604082019050919050565b6000612185601c83612745565b915061219082612b5d565b602082019050919050565b60006121a8602483612745565b91506121b382612b86565b604082019050919050565b60006121cb601983612745565b91506121d682612bd5565b602082019050919050565b60006121ee602c83612745565b91506121f982612bfe565b604082019050919050565b6000612211603883612745565b915061221c82612c4d565b604082019050919050565b6000612234602a83612745565b915061223f82612c9c565b604082019050919050565b6000612257602983612745565b915061226282612ceb565b604082019050919050565b600061227a602083612745565b915061228582612d3a565b602082019050919050565b600061229d602c83612745565b91506122a882612d63565b604082019050919050565b60006122c0602c83612745565b91506122cb82612db2565b604082019050919050565b60006122e3602083612745565b91506122ee82612e01565b602082019050919050565b6000612306602983612745565b915061231182612e2a565b604082019050919050565b6000612329602f83612745565b915061233482612e79565b604082019050919050565b600061234c602183612745565b915061235782612ec8565b604082019050919050565b600061236f603183612745565b915061237a82612f17565b604082019050919050565b61238e81612886565b82525050565b60006123a08285612101565b91506123ac8284612101565b91508190509392505050565b60006020820190506123cd6000830184612071565b92915050565b60006080820190506123e86000830187612071565b6123f56020830186612071565b6124026040830185612385565b8181036060830152612414818461208f565b905095945050505050565b60006020820190506124346000830184612080565b92915050565b6000602082019050818103600083015261245481846120c8565b905092915050565b6000602082019050818103600083015261247581612132565b9050919050565b6000602082019050818103600083015261249581612155565b9050919050565b600060208201905081810360008301526124b581612178565b9050919050565b600060208201905081810360008301526124d58161219b565b9050919050565b600060208201905081810360008301526124f5816121be565b9050919050565b60006020820190508181036000830152612515816121e1565b9050919050565b6000602082019050818103600083015261253581612204565b9050919050565b6000602082019050818103600083015261255581612227565b9050919050565b600060208201905081810360008301526125758161224a565b9050919050565b600060208201905081810360008301526125958161226d565b9050919050565b600060208201905081810360008301526125b581612290565b9050919050565b600060208201905081810360008301526125d5816122b3565b9050919050565b600060208201905081810360008301526125f5816122d6565b9050919050565b60006020820190508181036000830152612615816122f9565b9050919050565b600060208201905081810360008301526126358161231c565b9050919050565b600060208201905081810360008301526126558161233f565b9050919050565b6000602082019050818103600083015261267581612362565b9050919050565b60006020820190506126916000830184612385565b92915050565b60006126a16126b2565b90506126ad8282612904565b919050565b6000604051905090565b600067ffffffffffffffff8211156126d7576126d6612a6b565b5b6126e082612aae565b9050602081019050919050565b600067ffffffffffffffff82111561270857612707612a6b565b5b61271182612aae565b9050602081019050919050565b600081519050919050565b600081519050919050565b600082825260208201905092915050565b600082825260208201905092915050565b600081905092915050565b600061276c82612886565b915061277783612886565b9250827fffffffffffffffffffffffffffffffffffffffffffffffffffffffffffffffff038211156127ac576127ab6129af565b5b828201905092915050565b60006127c282612886565b91506127cd83612886565b9250826127dd576127dc6129de565b5b828204905092915050565b60006127f382612886565b91506127fe83612886565b925082821015612811576128106129af565b5b828203905092915050565b600061282782612866565b9050919050565b60008115159050919050565b60007fffffffff0000000000000000000000000000000000000000000000000000000082169050919050565b600073ffffffffffffffffffffffffffffffffffffffff82169050919050565b6000819050919050565b82818337600083830152505050565b60005b838110156128bd5780820151818401526020810190506128a2565b838111156128cc576000848401525b50505050565b600060028204905060018216806128ea57607f821691505b602082108114156128fe576128fd612a0d565b5b50919050565b61290d82612aae565b810181811067ffffffffffffffff8211171561292c5761292b612a6b565b5b80604052505050565b600061294082612886565b91507fffffffffffffffffffffffffffffffffffffffffffffffffffffffffffffffff821415612973576129726129af565b5b600182019050919050565b600061298982612886565b915061299483612886565b9250826129a4576129a36129de565b5b828206905092915050565b7f4e487b7100000000000000000000000000000000000000000000000000000000600052601160045260246000fd5b7f4e487b7100000000000000000000000000000000000000000000000000000000600052601260045260246000fd5b7f4e487b7100000000000000000000000000000000000000000000000000000000600052602260045260246000fd5b7f4e487b7100000000000000000000000000000000000000000000000000000000600052603260045260246000fd5b7f4e487b7100000000000000000000000000000000000000000000000000000000600052604160045260246000fd5b600080fd5b600080fd5b600080fd5b600080fd5b6000601f19601f8301169050919050565b7f4552433732313a207472616e7366657220746f206e6f6e20455243373231526560008201527f63656976657220696d706c656d656e7465720000000000000000000000000000602082015250565b7f4f776e61626c653a206e6577206f776e657220697320746865207a65726f206160008201527f6464726573730000000000000000000000000000000000000000000000000000602082015250565b7f4552433732313a20746f6b656e20616c7265616479206d696e74656400000000600082015250565b7f4552433732313a207472616e7366657220746f20746865207a65726f2061646460008201527f7265737300000000000000000000000000000000000000000000000000000000602082015250565b7f4552433732313a20617070726f766520746f2063616c6c657200000000000000600082015250565b7f4552433732313a206f70657261746f7220717565727920666f72206e6f6e657860008201527f697374656e7420746f6b656e0000000000000000000000000000000000000000602082015250565b7f4552433732313a20617070726f76652063616c6c6572206973206e6f74206f7760008201527f6e6572206e6f7220617070726f76656420666f7220616c6c0000000000000000602082015250565b7f4552433732313a2062616c616e636520717565727920666f7220746865207a6560008201527f726f206164647265737300000000000000000000000000000000000000000000602082015250565b7f4552433732313a206f776e657220717565727920666f72206e6f6e657869737460008201527f656e7420746f6b656e0000000000000000000000000000000000000000000000602082015250565b7f4552433732313a206d696e7420746f20746865207a65726f2061646472657373600082015250565b7f4552433732313a20617070726f76656420717565727920666f72206e6f6e657860008201527f697374656e7420746f6b656e0000000000000000000000000000000000000000602082015250565b7f4552433732314d657461646174613a2055524920736574206f66206e6f6e657860008201527f697374656e7420746f6b656e0000000000000000000000000000000000000000602082015250565b7f4f776e61626c653a2063616c6c6572206973206e6f7420746865206f776e6572600082015250565b7f4552433732313a207472616e73666572206f6620746f6b656e2074686174206960008201527f73206e6f74206f776e0000000000000000000000000000000000000000000000602082015250565b7f4552433732314d657461646174613a2055524920717565727920666f72206e6f60008201527f6e6578697374656e7420746f6b656e0000000000000000000000000000000000602082015250565b7f4552433732313a20617070726f76616c20746f2063757272656e74206f776e6560008201527f7200000000000000000000000000000000000000000000000000000000000000602082015250565b7f4552433732313a207472616e736665722063616c6c6572206973206e6f74206f60008201527f776e6572206e6f7220617070726f766564000000000000000000000000000000602082015250565b612f6f8161281c565b8114612f7a57600080fd5b50565b612f868161282e565b8114612f9157600080fd5b50565b612f9d8161283a565b8114612fa857600080fd5b50565b612fb481612886565b8114612fbf57600080fd5b5056fea2646970667358221220de2b0d2150ed448b07a52b45671cef2de7f993443fa6c49b6d6afac4bb7c6c5b64736f6c63430008070033",
  "immutableReferences": {},
  "source": "// SPDX-License-Identifier: MIT\npragma solidity >=0.4.22 <0.9.0;\n\nimport \"@openzeppelin/contracts/token/ERC721/ERC721.sol\";\nimport \"@openzeppelin/contracts/utils/Counters.sol\";\nimport \"@openzeppelin/contracts/access/Ownable.sol\";\n\ncontract ArtCollectible is Ownable, ERC721 {\n    using Counters for Counters.Counter;\n    Counters.Counter private _tokenIds;\n    using Strings for uint256;\n    // Optional mapping for token URIs\n    mapping(uint256 => string) private _tokenURIs;\n\n    // Base URI\n    string private _baseURIextended;\n\n    constructor() public ERC721(\"artCollectible\", \"ARTC\") {}\n\n    // https://forum.openzeppelin.com/t/function-settokenuri-in-erc721-is-gone-with-pragma-0-8-0/5978/3\n    function setBaseURI(string memory baseURI_) external onlyOwner {\n        _baseURIextended = baseURI_;\n    }\n\n    function _setTokenURI(uint256 tokenId, string memory _tokenURI)\n        internal\n        virtual\n    {\n        require(\n            _exists(tokenId),\n            \"ERC721Metadata: URI set of nonexistent token\"\n        );\n        _tokenURIs[tokenId] = _tokenURI;\n    }\n\n    function _baseURI() internal view virtual override returns (string memory) {\n        return _baseURIextended;\n    }\n\n    function tokenURI(uint256 tokenId)\n        public\n        view\n        virtual\n        override\n        returns (string memory)\n    {\n        require(\n            _exists(tokenId),\n            \"ERC721Metadata: URI query for nonexistent token\"\n        );\n\n        string memory _tokenURI = _tokenURIs[tokenId];\n        string memory base = _baseURI();\n\n        // If there is no base URI, return the token URI.\n        if (bytes(base).length == 0) {\n            return _tokenURI;\n        }\n        // If both are set, concatenate the baseURI and tokenURI (via abi.encodePacked).\n        if (bytes(_tokenURI).length > 0) {\n            return string(abi.encodePacked(base, _tokenURI));\n        }\n        // If there is a baseURI but no tokenURI, concatenate the tokenID to the baseURI.\n        return string(abi.encodePacked(base, tokenId.toString()));\n    }\n\n    function claimItem(string memory tokenURI) public returns (uint256) {\n        _tokenIds.increment();\n        uint256 newItemId = _tokenIds.current();\n        _safeMint(msg.sender, newItemId);\n        _setTokenURI(newItemId, tokenURI);\n        return newItemId;\n    }\n}\n",
  "sourcePath": "/Users/nehamac/Documents/github-projects/nft-demo/contracts/ArtCollectible.sol",
  "compiler": {
    "name": "solc",
    "version": "0.8.7+commit.e28d00a7.Emscripten.clang"
  },
  "schemaVersion": "3.4.3",
  "updatedAt": "2021-08-31T13:13:02.557Z",
  "networkType": "ethereum",
  "devdoc": {
    "kind": "dev",
    "methods": {
      "approve(address,uint256)": {
        "details": "See {IERC721-approve}."
      },
      "balanceOf(address)": {
        "details": "See {IERC721-balanceOf}."
      },
      "getApproved(uint256)": {
        "details": "See {IERC721-getApproved}."
      },
      "isApprovedForAll(address,address)": {
        "details": "See {IERC721-isApprovedForAll}."
      },
      "name()": {
        "details": "See {IERC721Metadata-name}."
      },
      "owner()": {
        "details": "Returns the address of the current owner."
      },
      "ownerOf(uint256)": {
        "details": "See {IERC721-ownerOf}."
      },
      "renounceOwnership()": {
        "details": "Leaves the contract without owner. It will not be possible to call `onlyOwner` functions anymore. Can only be called by the current owner. NOTE: Renouncing ownership will leave the contract without an owner, thereby removing any functionality that is only available to the owner."
      },
      "safeTransferFrom(address,address,uint256)": {
        "details": "See {IERC721-safeTransferFrom}."
      },
      "safeTransferFrom(address,address,uint256,bytes)": {
        "details": "See {IERC721-safeTransferFrom}."
      },
      "setApprovalForAll(address,bool)": {
        "details": "See {IERC721-setApprovalForAll}."
      },
      "supportsInterface(bytes4)": {
        "details": "See {IERC165-supportsInterface}."
      },
      "symbol()": {
        "details": "See {IERC721Metadata-symbol}."
      },
      "tokenURI(uint256)": {
        "details": "See {IERC721Metadata-tokenURI}."
      },
      "transferFrom(address,address,uint256)": {
        "details": "See {IERC721-transferFrom}."
      },
      "transferOwnership(address)": {
        "details": "Transfers ownership of the contract to a new account (`newOwner`). Can only be called by the current owner."
      }
    },
    "version": 1
  },
  "userdoc": {
    "kind": "user",
    "methods": {},
    "version": 1
  }
}