{
  "contractName": "CTGeeksCollection",
  "abi": [
    {
      "inputs": [],
      "stateMutability": "nonpayable",
      "type": "constructor"
    },
    {
      "anonymous": false,
      "inputs": [
        {
          "indexed": true,
          "internalType": "address",
          "name": "owner",
          "type": "address"
        },
        {
          "indexed": true,
          "internalType": "address",
          "name": "approved",
          "type": "address"
        },
        {
          "indexed": true,
          "internalType": "uint256",
          "name": "tokenId",
          "type": "uint256"
        }
      ],
      "name": "Approval",
      "type": "event"
    },
    {
      "anonymous": false,
      "inputs": [
        {
          "indexed": true,
          "internalType": "address",
          "name": "owner",
          "type": "address"
        },
        {
          "indexed": true,
          "internalType": "address",
          "name": "operator",
          "type": "address"
        },
        {
          "indexed": false,
          "internalType": "bool",
          "name": "approved",
          "type": "bool"
        }
      ],
      "name": "ApprovalForAll",
      "type": "event"
    },
    {
      "anonymous": false,
      "inputs": [
        {
          "indexed": true,
          "internalType": "address",
          "name": "previousOwner",
          "type": "address"
        },
        {
          "indexed": true,
          "internalType": "address",
          "name": "newOwner",
          "type": "address"
        }
      ],
      "name": "OwnershipTransferred",
      "type": "event"
    },
    {
      "anonymous": false,
      "inputs": [
        {
          "indexed": true,
          "internalType": "address",
          "name": "from",
          "type": "address"
        },
        {
          "indexed": true,
          "internalType": "address",
          "name": "to",
          "type": "address"
        },
        {
          "indexed": true,
          "internalType": "uint256",
          "name": "tokenId",
          "type": "uint256"
        }
      ],
      "name": "Transfer",
      "type": "event"
    },
    {
      "inputs": [
        {
          "internalType": "address",
          "name": "to",
          "type": "address"
        },
        {
          "internalType": "uint256",
          "name": "tokenId",
          "type": "uint256"
        }
      ],
      "name": "approve",
      "outputs": [],
      "stateMutability": "nonpayable",
      "type": "function"
    },
    {
      "inputs": [
        {
          "internalType": "address",
          "name": "owner",
          "type": "address"
        }
      ],
      "name": "balanceOf",
      "outputs": [
        {
          "internalType": "uint256",
          "name": "",
          "type": "uint256"
        }
      ],
      "stateMutability": "view",
      "type": "function",
      "constant": true
    },
    {
      "inputs": [
        {
          "internalType": "uint256",
          "name": "tokenId",
          "type": "uint256"
        }
      ],
      "name": "getApproved",
      "outputs": [
        {
          "internalType": "address",
          "name": "",
          "type": "address"
        }
      ],
      "stateMutability": "view",
      "type": "function",
      "constant": true
    },
    {
      "inputs": [
        {
          "internalType": "address",
          "name": "owner",
          "type": "address"
        },
        {
          "internalType": "address",
          "name": "operator",
          "type": "address"
        }
      ],
      "name": "isApprovedForAll",
      "outputs": [
        {
          "internalType": "bool",
          "name": "",
          "type": "bool"
        }
      ],
      "stateMutability": "view",
      "type": "function",
      "constant": true
    },
    {
      "inputs": [],
      "name": "name",
      "outputs": [
        {
          "internalType": "string",
          "name": "",
          "type": "string"
        }
      ],
      "stateMutability": "view",
      "type": "function",
      "constant": true
    },
    {
      "inputs": [],
      "name": "owner",
      "outputs": [
        {
          "internalType": "address",
          "name": "",
          "type": "address"
        }
      ],
      "stateMutability": "view",
      "type": "function",
      "constant": true
    },
    {
      "inputs": [
        {
          "internalType": "uint256",
          "name": "tokenId",
          "type": "uint256"
        }
      ],
      "name": "ownerOf",
      "outputs": [
        {
          "internalType": "address",
          "name": "",
          "type": "address"
        }
      ],
      "stateMutability": "view",
      "type": "function",
      "constant": true
    },
    {
      "inputs": [],
      "name": "renounceOwnership",
      "outputs": [],
      "stateMutability": "nonpayable",
      "type": "function"
    },
    {
      "inputs": [
        {
          "internalType": "address",
          "name": "from",
          "type": "address"
        },
        {
          "internalType": "address",
          "name": "to",
          "type": "address"
        },
        {
          "internalType": "uint256",
          "name": "tokenId",
          "type": "uint256"
        }
      ],
      "name": "safeTransferFrom",
      "outputs": [],
      "stateMutability": "nonpayable",
      "type": "function"
    },
    {
      "inputs": [
        {
          "internalType": "address",
          "name": "from",
          "type": "address"
        },
        {
          "internalType": "address",
          "name": "to",
          "type": "address"
        },
        {
          "internalType": "uint256",
          "name": "tokenId",
          "type": "uint256"
        },
        {
          "internalType": "bytes",
          "name": "_data",
          "type": "bytes"
        }
      ],
      "name": "safeTransferFrom",
      "outputs": [],
      "stateMutability": "nonpayable",
      "type": "function"
    },
    {
      "inputs": [
        {
          "internalType": "address",
          "name": "operator",
          "type": "address"
        },
        {
          "internalType": "bool",
          "name": "approved",
          "type": "bool"
        }
      ],
      "name": "setApprovalForAll",
      "outputs": [],
      "stateMutability": "nonpayable",
      "type": "function"
    },
    {
      "inputs": [
        {
          "internalType": "bytes4",
          "name": "interfaceId",
          "type": "bytes4"
        }
      ],
      "name": "supportsInterface",
      "outputs": [
        {
          "internalType": "bool",
          "name": "",
          "type": "bool"
        }
      ],
      "stateMutability": "view",
      "type": "function",
      "constant": true
    },
    {
      "inputs": [],
      "name": "symbol",
      "outputs": [
        {
          "internalType": "string",
          "name": "",
          "type": "string"
        }
      ],
      "stateMutability": "view",
      "type": "function",
      "constant": true
    },
    {
      "inputs": [
        {
          "internalType": "address",
          "name": "from",
          "type": "address"
        },
        {
          "internalType": "address",
          "name": "to",
          "type": "address"
        },
        {
          "internalType": "uint256",
          "name": "tokenId",
          "type": "uint256"
        }
      ],
      "name": "transferFrom",
      "outputs": [],
      "stateMutability": "nonpayable",
      "type": "function"
    },
    {
      "inputs": [
        {
          "internalType": "address",
          "name": "newOwner",
          "type": "address"
        }
      ],
      "name": "transferOwnership",
      "outputs": [],
      "stateMutability": "nonpayable",
      "type": "function"
    },
    {
      "inputs": [
        {
          "internalType": "string",
          "name": "baseURI_",
          "type": "string"
        }
      ],
      "name": "setBaseURI",
      "outputs": [],
      "stateMutability": "nonpayable",
      "type": "function"
    },
    {
      "inputs": [
        {
          "internalType": "uint256",
          "name": "tokenId",
          "type": "uint256"
        }
      ],
      "name": "tokenURI",
      "outputs": [
        {
          "internalType": "string",
          "name": "",
          "type": "string"
        }
      ],
      "stateMutability": "view",
      "type": "function",
      "constant": true
    },
    {
      "inputs": [
        {
          "internalType": "string",
          "name": "tokenURI",
          "type": "string"
        }
      ],
      "name": "claimItem",
      "outputs": [
        {
          "internalType": "uint256",
          "name": "",
          "type": "uint256"
        }
      ],
      "stateMutability": "nonpayable",
      "type": "function"
    },
    {
      "inputs": [],
      "name": "totalSupply",
      "outputs": [
        {
          "internalType": "uint256",
          "name": "",
          "type": "uint256"
        }
      ],
      "stateMutability": "view",
      "type": "function",
      "constant": true
    }
  ],
  "bytecode": "0x60806040523480156200001157600080fd5b506040518060400160405280601181526020017f43544765656b73436f6c6c656374696f6e0000000000000000000000000000008152506040518060400160405280600481526020017f43544743000000000000000000000000000000000000000000000000000000008152506200009e62000092620000d860201b60201c565b620000e060201b60201c565b8160019080519060200190620000b6929190620001a4565b508060029080519060200190620000cf929190620001a4565b505050620002b9565b600033905090565b60008060009054906101000a900473ffffffffffffffffffffffffffffffffffffffff169050816000806101000a81548173ffffffffffffffffffffffffffffffffffffffff021916908373ffffffffffffffffffffffffffffffffffffffff1602179055508173ffffffffffffffffffffffffffffffffffffffff168173ffffffffffffffffffffffffffffffffffffffff167f8be0079c531659141344cd1fd0a4f28419497f9722a3daafe3b4186f6b6457e060405160405180910390a35050565b828054620001b29062000254565b90600052602060002090601f016020900481019282620001d6576000855562000222565b82601f10620001f157805160ff191683800117855562000222565b8280016001018555821562000222579182015b828111156200022157825182559160200191906001019062000204565b5b50905062000231919062000235565b5090565b5b808211156200025057600081600090555060010162000236565b5090565b600060028204905060018216806200026d57607f821691505b602082108114156200028457620002836200028a565b5b50919050565b7f4e487b7100000000000000000000000000000000000000000000000000000000600052602260045260246000fd5b61303480620002c96000396000f3fe608060405234801561001057600080fd5b50600436106101215760003560e01c806370a08231116100ad578063a850e8bd11610071578063a850e8bd146102f4578063b88d4fde14610324578063c87b56dd14610340578063e985e9c514610370578063f2fde38b146103a057610121565b806370a0823114610262578063715018a6146102925780638da5cb5b1461029c57806395d89b41146102ba578063a22cb465146102d857610121565b806318160ddd116100f457806318160ddd146101c057806323b872dd146101de57806342842e0e146101fa57806355f804b3146102165780636352211e1461023257610121565b806301ffc9a71461012657806306fdde0314610156578063081812fc14610174578063095ea7b3146101a4575b600080fd5b610140600480360381019061013b9190611fdd565b6103bc565b60405161014d919061245b565b60405180910390f35b61015e61049e565b60405161016b9190612476565b60405180910390f35b61018e60048036038101906101899190612080565b610530565b60405161019b91906123f4565b60405180910390f35b6101be60048036038101906101b99190611f9d565b6105b5565b005b6101c86106cd565b6040516101d591906126b8565b60405180910390f35b6101f860048036038101906101f39190611e87565b6106de565b005b610214600480360381019061020f9190611e87565b61073e565b005b610230600480360381019061022b9190612037565b61075e565b005b61024c60048036038101906102479190612080565b6107f4565b60405161025991906123f4565b60405180910390f35b61027c60048036038101906102779190611e1a565b6108a6565b60405161028991906126b8565b60405180910390f35b61029a61095e565b005b6102a46109e6565b6040516102b191906123f4565b60405180910390f35b6102c2610a0f565b6040516102cf9190612476565b60405180910390f35b6102f260048036038101906102ed9190611f5d565b610aa1565b005b61030e60048036038101906103099190612037565b610ab7565b60405161031b91906126b8565b60405180910390f35b61033e60048036038101906103399190611eda565b610aee565b005b61035a60048036038101906103559190612080565b610b50565b6040516103679190612476565b60405180910390f35b61038a60048036038101906103859190611e47565b610cc3565b604051610397919061245b565b60405180910390f35b6103ba60048036038101906103b59190611e1a565b610d57565b005b60007f80ac58cd000000000000000000000000000000000000000000000000000000007bffffffffffffffffffffffffffffffffffffffffffffffffffffffff1916827bffffffffffffffffffffffffffffffffffffffffffffffffffffffff1916148061048757507f5b5e139f000000000000000000000000000000000000000000000000000000007bffffffffffffffffffffffffffffffffffffffffffffffffffffffff1916827bffffffffffffffffffffffffffffffffffffffffffffffffffffffff1916145b80610497575061049682610e4f565b5b9050919050565b6060600180546104ad9061290e565b80601f01602080910402602001604051908101604052809291908181526020018280546104d99061290e565b80156105265780601f106104fb57610100808354040283529160200191610526565b820191906000526020600020905b81548152906001019060200180831161050957829003601f168201915b5050505050905090565b600061053b82610eb9565b61057a576040517f08c379a0000000000000000000000000000000000000000000000000000000008152600401610571906125d8565b60405180910390fd5b6005600083815260200190815260200160002060009054906101000a900473ffffffffffffffffffffffffffffffffffffffff169050919050565b60006105c0826107f4565b90508073ffffffffffffffffffffffffffffffffffffffff168373ffffffffffffffffffffffffffffffffffffffff161415610631576040517f08c379a000000000000000000000000000000000000000000000000000000000815260040161062890612678565b60405180910390fd5b8073ffffffffffffffffffffffffffffffffffffffff16610650610f25565b73ffffffffffffffffffffffffffffffffffffffff16148061067f575061067e81610679610f25565b610cc3565b5b6106be576040517f08c379a00000000000000000000000000000000000000000000000000000000081526004016106b590612558565b60405180910390fd5b6106c88383610f2d565b505050565b60006106d96007610fe6565b905090565b6106ef6106e9610f25565b82610ff4565b61072e576040517f08c379a000000000000000000000000000000000000000000000000000000000815260040161072590612698565b60405180910390fd5b6107398383836110d2565b505050565b61075983838360405180602001604052806000815250610aee565b505050565b610766610f25565b73ffffffffffffffffffffffffffffffffffffffff166107846109e6565b73ffffffffffffffffffffffffffffffffffffffff16146107da576040517f08c379a00000000000000000000000000000000000000000000000000000000081526004016107d190612618565b60405180910390fd5b80600990805190602001906107f0929190611c2e565b5050565b6000806003600084815260200190815260200160002060009054906101000a900473ffffffffffffffffffffffffffffffffffffffff169050600073ffffffffffffffffffffffffffffffffffffffff168173ffffffffffffffffffffffffffffffffffffffff16141561089d576040517f08c379a000000000000000000000000000000000000000000000000000000000815260040161089490612598565b60405180910390fd5b80915050919050565b60008073ffffffffffffffffffffffffffffffffffffffff168273ffffffffffffffffffffffffffffffffffffffff161415610917576040517f08c379a000000000000000000000000000000000000000000000000000000000815260040161090e90612578565b60405180910390fd5b600460008373ffffffffffffffffffffffffffffffffffffffff1673ffffffffffffffffffffffffffffffffffffffff168152602001908152602001600020549050919050565b610966610f25565b73ffffffffffffffffffffffffffffffffffffffff166109846109e6565b73ffffffffffffffffffffffffffffffffffffffff16146109da576040517f08c379a00000000000000000000000000000000000000000000000000000000081526004016109d190612618565b60405180910390fd5b6109e4600061132e565b565b60008060009054906101000a900473ffffffffffffffffffffffffffffffffffffffff16905090565b606060028054610a1e9061290e565b80601f0160208091040260200160405190810160405280929190818152602001828054610a4a9061290e565b8015610a975780601f10610a6c57610100808354040283529160200191610a97565b820191906000526020600020905b815481529060010190602001808311610a7a57829003601f168201915b5050505050905090565b610ab3610aac610f25565b83836113f2565b5050565b6000610ac3600761155f565b6000610acf6007610fe6565b9050610adb3382611575565b610ae58184611593565b80915050919050565b610aff610af9610f25565b83610ff4565b610b3e576040517f08c379a0000000000000000000000000000000000000000000000000000000008152600401610b3590612698565b60405180910390fd5b610b4a84848484611607565b50505050565b6060610b5b82610eb9565b610b9a576040517f08c379a0000000000000000000000000000000000000000000000000000000008152600401610b9190612658565b60405180910390fd5b6000600860008481526020019081526020016000208054610bba9061290e565b80601f0160208091040260200160405190810160405280929190818152602001828054610be69061290e565b8015610c335780601f10610c0857610100808354040283529160200191610c33565b820191906000526020600020905b815481529060010190602001808311610c1657829003601f168201915b505050505090506000610c44611663565b9050600081511415610c5a578192505050610cbe565b600082511115610c8f578082604051602001610c779291906123d0565b60405160208183030381529060405292505050610cbe565b80610c99856116f5565b604051602001610caa9291906123d0565b604051602081830303815290604052925050505b919050565b6000600660008473ffffffffffffffffffffffffffffffffffffffff1673ffffffffffffffffffffffffffffffffffffffff16815260200190815260200160002060008373ffffffffffffffffffffffffffffffffffffffff1673ffffffffffffffffffffffffffffffffffffffff16815260200190815260200160002060009054906101000a900460ff16905092915050565b610d5f610f25565b73ffffffffffffffffffffffffffffffffffffffff16610d7d6109e6565b73ffffffffffffffffffffffffffffffffffffffff1614610dd3576040517f08c379a0000000000000000000000000000000000000000000000000000000008152600401610dca90612618565b60405180910390fd5b600073ffffffffffffffffffffffffffffffffffffffff168173ffffffffffffffffffffffffffffffffffffffff161415610e43576040517f08c379a0000000000000000000000000000000000000000000000000000000008152600401610e3a906124b8565b60405180910390fd5b610e4c8161132e565b50565b60007f01ffc9a7000000000000000000000000000000000000000000000000000000007bffffffffffffffffffffffffffffffffffffffffffffffffffffffff1916827bffffffffffffffffffffffffffffffffffffffffffffffffffffffff1916149050919050565b60008073ffffffffffffffffffffffffffffffffffffffff166003600084815260200190815260200160002060009054906101000a900473ffffffffffffffffffffffffffffffffffffffff1673ffffffffffffffffffffffffffffffffffffffff1614159050919050565b600033905090565b816005600083815260200190815260200160002060006101000a81548173ffffffffffffffffffffffffffffffffffffffff021916908373ffffffffffffffffffffffffffffffffffffffff160217905550808273ffffffffffffffffffffffffffffffffffffffff16610fa0836107f4565b73ffffffffffffffffffffffffffffffffffffffff167f8c5be1e5ebec7d5bd14f71427d1e84f3dd0314c0f7b2291e5b200ac8c7c3b92560405160405180910390a45050565b600081600001549050919050565b6000610fff82610eb9565b61103e576040517f08c379a000000000000000000000000000000000000000000000000000000000815260040161103590612538565b60405180910390fd5b6000611049836107f4565b90508073ffffffffffffffffffffffffffffffffffffffff168473ffffffffffffffffffffffffffffffffffffffff1614806110b857508373ffffffffffffffffffffffffffffffffffffffff166110a084610530565b73ffffffffffffffffffffffffffffffffffffffff16145b806110c957506110c88185610cc3565b5b91505092915050565b8273ffffffffffffffffffffffffffffffffffffffff166110f2826107f4565b73ffffffffffffffffffffffffffffffffffffffff1614611148576040517f08c379a000000000000000000000000000000000000000000000000000000000815260040161113f90612638565b60405180910390fd5b600073ffffffffffffffffffffffffffffffffffffffff168273ffffffffffffffffffffffffffffffffffffffff1614156111b8576040517f08c379a00000000000000000000000000000000000000000000000000000000081526004016111af906124f8565b60405180910390fd5b6111c3838383611856565b6111ce600082610f2d565b6001600460008573ffffffffffffffffffffffffffffffffffffffff1673ffffffffffffffffffffffffffffffffffffffff168152602001908152602001600020600082825461121e9190612824565b925050819055506001600460008473ffffffffffffffffffffffffffffffffffffffff1673ffffffffffffffffffffffffffffffffffffffff1681526020019081526020016000206000828254611275919061279d565b92505081905550816003600083815260200190815260200160002060006101000a81548173ffffffffffffffffffffffffffffffffffffffff021916908373ffffffffffffffffffffffffffffffffffffffff160217905550808273ffffffffffffffffffffffffffffffffffffffff168473ffffffffffffffffffffffffffffffffffffffff167fddf252ad1be2c89b69c2b068fc378daa952ba7f163c4a11628f55a4df523b3ef60405160405180910390a4505050565b60008060009054906101000a900473ffffffffffffffffffffffffffffffffffffffff169050816000806101000a81548173ffffffffffffffffffffffffffffffffffffffff021916908373ffffffffffffffffffffffffffffffffffffffff1602179055508173ffffffffffffffffffffffffffffffffffffffff168173ffffffffffffffffffffffffffffffffffffffff167f8be0079c531659141344cd1fd0a4f28419497f9722a3daafe3b4186f6b6457e060405160405180910390a35050565b8173ffffffffffffffffffffffffffffffffffffffff168373ffffffffffffffffffffffffffffffffffffffff161415611461576040517f08c379a000000000000000000000000000000000000000000000000000000000815260040161145890612518565b60405180910390fd5b80600660008573ffffffffffffffffffffffffffffffffffffffff1673ffffffffffffffffffffffffffffffffffffffff16815260200190815260200160002060008473ffffffffffffffffffffffffffffffffffffffff1673ffffffffffffffffffffffffffffffffffffffff16815260200190815260200160002060006101000a81548160ff0219169083151502179055508173ffffffffffffffffffffffffffffffffffffffff168373ffffffffffffffffffffffffffffffffffffffff167f17307eab39ab6107e8899845ad3d59bd9653f200f220920489ca2b5937696c3183604051611552919061245b565b60405180910390a3505050565b6001816000016000828254019250508190555050565b61158f82826040518060200160405280600081525061185b565b5050565b61159c82610eb9565b6115db576040517f08c379a00000000000000000000000000000000000000000000000000000000081526004016115d2906125f8565b60405180910390fd5b80600860008481526020019081526020016000209080519060200190611602929190611c2e565b505050565b6116128484846110d2565b61161e848484846118b6565b61165d576040517f08c379a000000000000000000000000000000000000000000000000000000000815260040161165490612498565b60405180910390fd5b50505050565b6060600980546116729061290e565b80601f016020809104026020016040519081016040528092919081815260200182805461169e9061290e565b80156116eb5780601f106116c0576101008083540402835291602001916116eb565b820191906000526020600020905b8154815290600101906020018083116116ce57829003601f168201915b5050505050905090565b6060600082141561173d576040518060400160405280600181526020017f30000000000000000000000000000000000000000000000000000000000000008152509050611851565b600082905060005b6000821461176f57808061175890612971565b915050600a8261176891906127f3565b9150611745565b60008167ffffffffffffffff81111561178b5761178a612aa7565b5b6040519080825280601f01601f1916602001820160405280156117bd5781602001600182028036833780820191505090505b5090505b6000851461184a576001826117d69190612824565b9150600a856117e591906129ba565b60306117f1919061279d565b60f81b81838151811061180757611806612a78565b5b60200101907effffffffffffffffffffffffffffffffffffffffffffffffffffffffffffff1916908160001a905350600a8561184391906127f3565b94506117c1565b8093505050505b919050565b505050565b6118658383611a4d565b61187260008484846118b6565b6118b1576040517f08c379a00000000000000000000000000000000000000000000000000000000081526004016118a890612498565b60405180910390fd5b505050565b60006118d78473ffffffffffffffffffffffffffffffffffffffff16611c1b565b15611a40578373ffffffffffffffffffffffffffffffffffffffff1663150b7a02611900610f25565b8786866040518563ffffffff1660e01b8152600401611922949392919061240f565b602060405180830381600087803b15801561193c57600080fd5b505af192505050801561196d57506040513d601f19601f8201168201806040525081019061196a919061200a565b60015b6119f0573d806000811461199d576040519150601f19603f3d011682016040523d82523d6000602084013e6119a2565b606091505b506000815114156119e8576040517f08c379a00000000000000000000000000000000000000000000000000000000081526004016119df90612498565b60405180910390fd5b805181602001fd5b63150b7a0260e01b7bffffffffffffffffffffffffffffffffffffffffffffffffffffffff1916817bffffffffffffffffffffffffffffffffffffffffffffffffffffffff191614915050611a45565b600190505b949350505050565b600073ffffffffffffffffffffffffffffffffffffffff168273ffffffffffffffffffffffffffffffffffffffff161415611abd576040517f08c379a0000000000000000000000000000000000000000000000000000000008152600401611ab4906125b8565b60405180910390fd5b611ac681610eb9565b15611b06576040517f08c379a0000000000000000000000000000000000000000000000000000000008152600401611afd906124d8565b60405180910390fd5b611b1260008383611856565b6001600460008473ffffffffffffffffffffffffffffffffffffffff1673ffffffffffffffffffffffffffffffffffffffff1681526020019081526020016000206000828254611b62919061279d565b92505081905550816003600083815260200190815260200160002060006101000a81548173ffffffffffffffffffffffffffffffffffffffff021916908373ffffffffffffffffffffffffffffffffffffffff160217905550808273ffffffffffffffffffffffffffffffffffffffff16600073ffffffffffffffffffffffffffffffffffffffff167fddf252ad1be2c89b69c2b068fc378daa952ba7f163c4a11628f55a4df523b3ef60405160405180910390a45050565b600080823b905060008111915050919050565b828054611c3a9061290e565b90600052602060002090601f016020900481019282611c5c5760008555611ca3565b82601f10611c7557805160ff1916838001178555611ca3565b82800160010185558215611ca3579182015b82811115611ca2578251825591602001919060010190611c87565b5b509050611cb09190611cb4565b5090565b5b80821115611ccd576000816000905550600101611cb5565b5090565b6000611ce4611cdf846126f8565b6126d3565b905082815260208101848484011115611d0057611cff612adb565b5b611d0b8482856128cc565b509392505050565b6000611d26611d2184612729565b6126d3565b905082815260208101848484011115611d4257611d41612adb565b5b611d4d8482856128cc565b509392505050565b600081359050611d6481612fa2565b92915050565b600081359050611d7981612fb9565b92915050565b600081359050611d8e81612fd0565b92915050565b600081519050611da381612fd0565b92915050565b600082601f830112611dbe57611dbd612ad6565b5b8135611dce848260208601611cd1565b91505092915050565b600082601f830112611dec57611deb612ad6565b5b8135611dfc848260208601611d13565b91505092915050565b600081359050611e1481612fe7565b92915050565b600060208284031215611e3057611e2f612ae5565b5b6000611e3e84828501611d55565b91505092915050565b60008060408385031215611e5e57611e5d612ae5565b5b6000611e6c85828601611d55565b9250506020611e7d85828601611d55565b9150509250929050565b600080600060608486031215611ea057611e9f612ae5565b5b6000611eae86828701611d55565b9350506020611ebf86828701611d55565b9250506040611ed086828701611e05565b9150509250925092565b60008060008060808587031215611ef457611ef3612ae5565b5b6000611f0287828801611d55565b9450506020611f1387828801611d55565b9350506040611f2487828801611e05565b925050606085013567ffffffffffffffff811115611f4557611f44612ae0565b5b611f5187828801611da9565b91505092959194509250565b60008060408385031215611f7457611f73612ae5565b5b6000611f8285828601611d55565b9250506020611f9385828601611d6a565b9150509250929050565b60008060408385031215611fb457611fb3612ae5565b5b6000611fc285828601611d55565b9250506020611fd385828601611e05565b9150509250929050565b600060208284031215611ff357611ff2612ae5565b5b600061200184828501611d7f565b91505092915050565b6000602082840312156120205761201f612ae5565b5b600061202e84828501611d94565b91505092915050565b60006020828403121561204d5761204c612ae5565b5b600082013567ffffffffffffffff81111561206b5761206a612ae0565b5b61207784828501611dd7565b91505092915050565b60006020828403121561209657612095612ae5565b5b60006120a484828501611e05565b91505092915050565b6120b681612858565b82525050565b6120c58161286a565b82525050565b60006120d68261275a565b6120e08185612770565b93506120f08185602086016128db565b6120f981612aea565b840191505092915050565b600061210f82612765565b6121198185612781565b93506121298185602086016128db565b61213281612aea565b840191505092915050565b600061214882612765565b6121528185612792565b93506121628185602086016128db565b80840191505092915050565b600061217b603283612781565b915061218682612afb565b604082019050919050565b600061219e602683612781565b91506121a982612b4a565b604082019050919050565b60006121c1601c83612781565b91506121cc82612b99565b602082019050919050565b60006121e4602483612781565b91506121ef82612bc2565b604082019050919050565b6000612207601983612781565b915061221282612c11565b602082019050919050565b600061222a602c83612781565b915061223582612c3a565b604082019050919050565b600061224d603883612781565b915061225882612c89565b604082019050919050565b6000612270602a83612781565b915061227b82612cd8565b604082019050919050565b6000612293602983612781565b915061229e82612d27565b604082019050919050565b60006122b6602083612781565b91506122c182612d76565b602082019050919050565b60006122d9602c83612781565b91506122e482612d9f565b604082019050919050565b60006122fc602c83612781565b915061230782612dee565b604082019050919050565b600061231f602083612781565b915061232a82612e3d565b602082019050919050565b6000612342602983612781565b915061234d82612e66565b604082019050919050565b6000612365602f83612781565b915061237082612eb5565b604082019050919050565b6000612388602183612781565b915061239382612f04565b604082019050919050565b60006123ab603183612781565b91506123b682612f53565b604082019050919050565b6123ca816128c2565b82525050565b60006123dc828561213d565b91506123e8828461213d565b91508190509392505050565b600060208201905061240960008301846120ad565b92915050565b600060808201905061242460008301876120ad565b61243160208301866120ad565b61243e60408301856123c1565b818103606083015261245081846120cb565b905095945050505050565b600060208201905061247060008301846120bc565b92915050565b600060208201905081810360008301526124908184612104565b905092915050565b600060208201905081810360008301526124b18161216e565b9050919050565b600060208201905081810360008301526124d181612191565b9050919050565b600060208201905081810360008301526124f1816121b4565b9050919050565b60006020820190508181036000830152612511816121d7565b9050919050565b60006020820190508181036000830152612531816121fa565b9050919050565b600060208201905081810360008301526125518161221d565b9050919050565b6000602082019050818103600083015261257181612240565b9050919050565b6000602082019050818103600083015261259181612263565b9050919050565b600060208201905081810360008301526125b181612286565b9050919050565b600060208201905081810360008301526125d1816122a9565b9050919050565b600060208201905081810360008301526125f1816122cc565b9050919050565b60006020820190508181036000830152612611816122ef565b9050919050565b6000602082019050818103600083015261263181612312565b9050919050565b6000602082019050818103600083015261265181612335565b9050919050565b6000602082019050818103600083015261267181612358565b9050919050565b600060208201905081810360008301526126918161237b565b9050919050565b600060208201905081810360008301526126b18161239e565b9050919050565b60006020820190506126cd60008301846123c1565b92915050565b60006126dd6126ee565b90506126e98282612940565b919050565b6000604051905090565b600067ffffffffffffffff82111561271357612712612aa7565b5b61271c82612aea565b9050602081019050919050565b600067ffffffffffffffff82111561274457612743612aa7565b5b61274d82612aea565b9050602081019050919050565b600081519050919050565b600081519050919050565b600082825260208201905092915050565b600082825260208201905092915050565b600081905092915050565b60006127a8826128c2565b91506127b3836128c2565b9250827fffffffffffffffffffffffffffffffffffffffffffffffffffffffffffffffff038211156127e8576127e76129eb565b5b828201905092915050565b60006127fe826128c2565b9150612809836128c2565b92508261281957612818612a1a565b5b828204905092915050565b600061282f826128c2565b915061283a836128c2565b92508282101561284d5761284c6129eb565b5b828203905092915050565b6000612863826128a2565b9050919050565b60008115159050919050565b60007fffffffff0000000000000000000000000000000000000000000000000000000082169050919050565b600073ffffffffffffffffffffffffffffffffffffffff82169050919050565b6000819050919050565b82818337600083830152505050565b60005b838110156128f95780820151818401526020810190506128de565b83811115612908576000848401525b50505050565b6000600282049050600182168061292657607f821691505b6020821081141561293a57612939612a49565b5b50919050565b61294982612aea565b810181811067ffffffffffffffff8211171561296857612967612aa7565b5b80604052505050565b600061297c826128c2565b91507fffffffffffffffffffffffffffffffffffffffffffffffffffffffffffffffff8214156129af576129ae6129eb565b5b600182019050919050565b60006129c5826128c2565b91506129d0836128c2565b9250826129e0576129df612a1a565b5b828206905092915050565b7f4e487b7100000000000000000000000000000000000000000000000000000000600052601160045260246000fd5b7f4e487b7100000000000000000000000000000000000000000000000000000000600052601260045260246000fd5b7f4e487b7100000000000000000000000000000000000000000000000000000000600052602260045260246000fd5b7f4e487b7100000000000000000000000000000000000000000000000000000000600052603260045260246000fd5b7f4e487b7100000000000000000000000000000000000000000000000000000000600052604160045260246000fd5b600080fd5b600080fd5b600080fd5b600080fd5b6000601f19601f8301169050919050565b7f4552433732313a207472616e7366657220746f206e6f6e20455243373231526560008201527f63656976657220696d706c656d656e7465720000000000000000000000000000602082015250565b7f4f776e61626c653a206e6577206f776e657220697320746865207a65726f206160008201527f6464726573730000000000000000000000000000000000000000000000000000602082015250565b7f4552433732313a20746f6b656e20616c7265616479206d696e74656400000000600082015250565b7f4552433732313a207472616e7366657220746f20746865207a65726f2061646460008201527f7265737300000000000000000000000000000000000000000000000000000000602082015250565b7f4552433732313a20617070726f766520746f2063616c6c657200000000000000600082015250565b7f4552433732313a206f70657261746f7220717565727920666f72206e6f6e657860008201527f697374656e7420746f6b656e0000000000000000000000000000000000000000602082015250565b7f4552433732313a20617070726f76652063616c6c6572206973206e6f74206f7760008201527f6e6572206e6f7220617070726f76656420666f7220616c6c0000000000000000602082015250565b7f4552433732313a2062616c616e636520717565727920666f7220746865207a6560008201527f726f206164647265737300000000000000000000000000000000000000000000602082015250565b7f4552433732313a206f776e657220717565727920666f72206e6f6e657869737460008201527f656e7420746f6b656e0000000000000000000000000000000000000000000000602082015250565b7f4552433732313a206d696e7420746f20746865207a65726f2061646472657373600082015250565b7f4552433732313a20617070726f76656420717565727920666f72206e6f6e657860008201527f697374656e7420746f6b656e0000000000000000000000000000000000000000602082015250565b7f4552433732314d657461646174613a2055524920736574206f66206e6f6e657860008201527f697374656e7420746f6b656e0000000000000000000000000000000000000000602082015250565b7f4f776e61626c653a2063616c6c6572206973206e6f7420746865206f776e6572600082015250565b7f4552433732313a207472616e73666572206f6620746f6b656e2074686174206960008201527f73206e6f74206f776e0000000000000000000000000000000000000000000000602082015250565b7f4552433732314d657461646174613a2055524920717565727920666f72206e6f60008201527f6e6578697374656e7420746f6b656e0000000000000000000000000000000000602082015250565b7f4552433732313a20617070726f76616c20746f2063757272656e74206f776e6560008201527f7200000000000000000000000000000000000000000000000000000000000000602082015250565b7f4552433732313a207472616e736665722063616c6c6572206973206e6f74206f60008201527f776e6572206e6f7220617070726f766564000000000000000000000000000000602082015250565b612fab81612858565b8114612fb657600080fd5b50565b612fc28161286a565b8114612fcd57600080fd5b50565b612fd981612876565b8114612fe457600080fd5b50565b612ff0816128c2565b8114612ffb57600080fd5b5056fea26469706673582212206d5cb1667819256f35577615157063f15103cb360f9569a5a064c2b9c6d7c7b764736f6c63430008070033",
  "immutableReferences": {},
  "source": "// SPDX-License-Identifier: MIT\r\npragma solidity >=0.4.22 <0.9.0;\r\n\r\nimport \"@openzeppelin/contracts/token/ERC721/ERC721.sol\";\r\nimport \"@openzeppelin/contracts/utils/Counters.sol\";\r\nimport \"@openzeppelin/contracts/access/Ownable.sol\";\r\n\r\ncontract CTGeeksCollection is Ownable, ERC721 {\r\n    using Counters for Counters.Counter;\r\n    Counters.Counter private _tokenIds;\r\n    using Strings for uint256;\r\n    // Optional mapping for token URIs\r\n    mapping(uint256 => string) private _tokenURIs;\r\n\r\n    // Base URI\r\n    string private _baseURIextended;\r\n\r\n    constructor() public ERC721(\"CTGeeksCollection\", \"CTGC\") {}\r\n\r\n    // https://forum.openzeppelin.com/t/function-settokenuri-in-erc721-is-gone-with-pragma-0-8-0/5978/3\r\n    function setBaseURI(string memory baseURI_) external onlyOwner {\r\n        _baseURIextended = baseURI_;\r\n    }\r\n\r\n    function _setTokenURI(uint256 tokenId, string memory _tokenURI)\r\n        internal\r\n        virtual\r\n    {\r\n        require(\r\n            _exists(tokenId),\r\n            \"ERC721Metadata: URI set of nonexistent token\"\r\n        );\r\n        _tokenURIs[tokenId] = _tokenURI;\r\n    }\r\n\r\n    function _baseURI() internal view virtual override returns (string memory) {\r\n        return _baseURIextended;\r\n    }\r\n\r\n    function tokenURI(uint256 tokenId)\r\n        public\r\n        view\r\n        virtual\r\n        override\r\n        returns (string memory)\r\n    {\r\n        require(\r\n            _exists(tokenId),\r\n            \"ERC721Metadata: URI query for nonexistent token\"\r\n        );\r\n\r\n        string memory _tokenURI = _tokenURIs[tokenId];\r\n        string memory base = _baseURI();\r\n\r\n        // If there is no base URI, return the token URI.\r\n        if (bytes(base).length == 0) {\r\n            return _tokenURI;\r\n        }\r\n        // If both are set, concatenate the baseURI and tokenURI (via abi.encodePacked).\r\n        if (bytes(_tokenURI).length > 0) {\r\n            return string(abi.encodePacked(base, _tokenURI));\r\n        }\r\n        // If there is a baseURI but no tokenURI, concatenate the tokenID to the baseURI.\r\n        return string(abi.encodePacked(base, tokenId.toString()));\r\n    }\r\n\r\n    function claimItem(string memory tokenURI) public returns (uint256) {\r\n        _tokenIds.increment();\r\n        uint256 newItemId = _tokenIds.current();\r\n        _safeMint(msg.sender, newItemId);\r\n        _setTokenURI(newItemId, tokenURI);\r\n        return newItemId;\r\n    }\r\n\r\n    function totalSupply() public view returns (uint256) {\r\n        return _tokenIds.current();\r\n    }\r\n}\r\n",
  "sourcePath": "E:\\Projects\\nft-demo\\contracts\\CTGeeksCollection.sol",
  "compiler": {
    "name": "solc",
    "version": "0.8.7+commit.e28d00a7.Emscripten.clang"
  },
  "schemaVersion": "3.4.4",
  "updatedAt": "2022-02-07T15:55:04.075Z",
  "networkType": "ethereum",
  "devdoc": {
    "kind": "dev",
    "methods": {
      "approve(address,uint256)": {
        "details": "See {IERC721-approve}."
      },
      "balanceOf(address)": {
        "details": "See {IERC721-balanceOf}."
      },
      "getApproved(uint256)": {
        "details": "See {IERC721-getApproved}."
      },
      "isApprovedForAll(address,address)": {
        "details": "See {IERC721-isApprovedForAll}."
      },
      "name()": {
        "details": "See {IERC721Metadata-name}."
      },
      "owner()": {
        "details": "Returns the address of the current owner."
      },
      "ownerOf(uint256)": {
        "details": "See {IERC721-ownerOf}."
      },
      "renounceOwnership()": {
        "details": "Leaves the contract without owner. It will not be possible to call `onlyOwner` functions anymore. Can only be called by the current owner. NOTE: Renouncing ownership will leave the contract without an owner, thereby removing any functionality that is only available to the owner."
      },
      "safeTransferFrom(address,address,uint256)": {
        "details": "See {IERC721-safeTransferFrom}."
      },
      "safeTransferFrom(address,address,uint256,bytes)": {
        "details": "See {IERC721-safeTransferFrom}."
      },
      "setApprovalForAll(address,bool)": {
        "details": "See {IERC721-setApprovalForAll}."
      },
      "supportsInterface(bytes4)": {
        "details": "See {IERC165-supportsInterface}."
      },
      "symbol()": {
        "details": "See {IERC721Metadata-symbol}."
      },
      "tokenURI(uint256)": {
        "details": "See {IERC721Metadata-tokenURI}."
      },
      "transferFrom(address,address,uint256)": {
        "details": "See {IERC721-transferFrom}."
      },
      "transferOwnership(address)": {
        "details": "Transfers ownership of the contract to a new account (`newOwner`). Can only be called by the current owner."
      }
    },
    "version": 1
  },
  "userdoc": {
    "kind": "user",
    "methods": {},
    "version": 1
  }
}